:020000040800F2
:1000000000500020391A00082502000831020008BB
:10001000370200083D02000843020008000000000B
:100020000000000000000000000000005502000871
:100030004902000800000000610200086D0200088B
:100040007902000885020008910200089D0200085C
:10005000A9020008B5020008C1020008CD0200088C
:10006000D9020008E5020008F1020008FD020008BC
:100070000903000815030008210300082D030008E8
:100080003903000845030008510300085D03000818
:100090006903000875030008810300088D03000848
:1000A00099030008A5030008B1030008BD03000878
:1000B000C9030008D5030008E1030008ED030008A8
:1000C000F903000805040008110400081D040008D5
:1000D0002904000835040008410400084D04000804
:1000E00059040008650400087104000800000000BD
:1000F0000000000000000000000000000000000000
:0C01000000000000000000005FF800009C
:10010C0080B500AF00F02EF800F06CF80121102043
:10011C0001F03AFB0F4B4FF400521A800D4B0122A9
:10012C009A700C4B1022DA700A490B4800F050FA06
:10013C004FF40051084800F065FB084800F05BF8EC
:10014C004FF40051044800F06BFB054800F053F8E5
:10015C00EEE700BF0000002000100140FFFFAF00E1
:10016C00FFFF0F0080B500AF01F032F84FF4803084
:10017C0001F06AF801F096F803461A46184B1A700B
:10018C00174B1B78012B28D1102000F0A1F902206D
:10019C0000F06EF9002001F031F9002001F066F951
:1001AC004FF4806001F046F94FF4E0114FF48030C9
:1001BC0001F0CCF8012001F0E7F800BF392001F084
:1001CC008BFB0346002BF9D0022001F0EDF800BFA9
:1001DC0001F006F90346082BFAD100BF80BD00BF21
:1001EC000400002080B500AF00214FF0006000F04B
:1001FC0027FE00BF80BD80B483B000AF786002E002
:10020C007B68013B7B607B68002BF9D100BF00BF92
:10021C000C37BD4680BC704780B400AF00BFBD46F4
:10022C0080BC704780B400AFFEE780B400AFFEE73F
:10023C0080B400AFFEE780B400AFFEE780B400AF3F
:10024C0000BFBD4680BC704780B400AF00BFBD4648
:10025C0080BC704780B400AF00BFBD4680BC704707
:10026C0080B400AF00BFBD4680BC704780B400AF07
:10027C0000BFBD4680BC704780B400AF00BFBD4618
:10028C0080BC704780B400AF00BFBD4680BC7047D7
:10029C0080B400AF00BFBD4680BC704780B400AFD7
:1002AC0000BFBD4680BC704780B400AF00BFBD46E8
:1002BC0080BC704780B400AF00BFBD4680BC7047A7
:1002CC0080B400AF00BFBD4680BC704780B400AFA7
:1002DC0000BFBD4680BC704780B400AF00BFBD46B8
:1002EC0080BC704780B400AF00BFBD4680BC704777
:1002FC0080B400AF00BFBD4680BC704780B400AF77
:10030C0000BFBD4680BC704780B400AF00BFBD4687
:10031C0080BC704780B400AF00BFBD4680BC704746
:10032C0080B400AF00BFBD4680BC704780B400AF46
:10033C0000BFBD4680BC704780B400AF00BFBD4657
:10034C0080BC704780B400AF00BFBD4680BC704716
:10035C0080B400AF00BFBD4680BC704780B400AF16
:10036C0000BFBD4680BC704780B400AF00BFBD4627
:10037C0080BC704780B400AF00BFBD4680BC7047E6
:10038C0080B400AF00BFBD4680BC704780B400AFE6
:10039C0000BFBD4680BC704780B400AF00BFBD46F7
:1003AC0080BC704780B400AF00BFBD4680BC7047B6
:1003BC0080B400AF00BFBD4680BC704780B400AFB6
:1003CC0000BFBD4680BC704780B400AF00BFBD46C7
:1003DC0080BC704780B400AF00BFBD4680BC704786
:1003EC0080B400AF00BFBD4680BC704780B400AF86
:1003FC0000BFBD4680BC704780B400AF00BFBD4697
:10040C0080BC704780B400AF00BFBD4680BC704755
:10041C0080B400AF00BFBD4680BC704780B400AF55
:10042C0000BFBD4680BC704780B400AF00BFBD4666
:10043C0080BC704780B400AF00BFBD4680BC704725
:10044C0080B400AF00BFBD4680BC704780B400AF25
:10045C0000BFBD4680BC704780B400AF00BFBD4636
:10046C0080BC704780B400AF00BFBD4680BC7047F5
:10047C0080B483B000AF7860084B1B68074A03F068
:10048C0038031360054B1A6804497B6813430B60EF
:10049C0000BF0C37BD4680BC704700BF0020024037
:1004AC0080B483B000AF7860084B1B68074A23F018
:1004BC0008031360054B1A6804497B6813430B60EF
:1004CC0000BF0C37BD4680BC704700BF0020024007
:1004DC0080B483B000AF7860084B1B68074A23F0E8
:1004EC0010031360054B1A6804497B6813430B60B7
:1004FC0000BF0C37BD4680BC704700BF00200240D7
:10050C0080B582B000AF78603B1D1B68254A9342D2
:10051C0039D0244A93423FD8234A93422AD0224AC4
:10052C00934239D8214A93421BD0204A934233D864
:10053C001F4A934203D01F4A934209D02CE0012159
:10054C00042001F05DF90021042001F059F924E0A8
:10055C000121082001F054F90021082001F050F984
:10056C001BE00121102001F04BF90021102001F0BB
:10057C0047F912E00121202001F042F9002120204E
:10058C0001F03EF909E00121402001F039F9002188
:10059C00402001F035F900E000BF00BF0837BD4630
:1005AC0080BD00BF00180140001401400010014044
:1005BC0000080140000C014080B500AF0121012072
:1005CC0001F01EF90021012001F01AF900BF80BDD5
:1005DC0080B489B000AF786039600023FB610023E0
:1005EC003B610023BB610023FB6000237B61002384
:1005FC00BB603B68DB7803F00F03FB613B68DB7887
:10060C0003F01003002B05D03B689B781A46FB695E
:10061C001343FB613B681B88DBB2002B45D07B6826
:10062C001B687B610023BB6137E00122BB6902FAC6
:10063C0003F3FB603B681B881A46FB6813403B6165
:10064C003A69FB689A4225D1BB699B00FB600F227B
:10065C00FB6802FA03F3BB60BB68DB437A691340A7
:10066C007B61FA69FB6802FA03F37A6913437B61D5
:10067C003B68DB78282B04D10122BB699A407B684C
:10068C005A613B68DB78482B04D10122BB699A4044
:10069C007B681A61BB690133BB61BB69072BC4D989
:1006AC007B687A691A6000237B613B681B88FF2B8F
:1006BC0046D97B685B687B610023BB613AE0BB6910
:1006CC000833012202FA03F3FB603B681B881A46CD
:1006DC00FB6813403B613A69FB689A4227D1BB69BE
:1006EC009B00FB600F22FB6802FA03F3BB60BB6844
:1006FC00DB437A6913407B61FA69FB6802FA03F306
:10070C007A6913437B613B68DB78282B05D1BB6985
:10071C00083301229A407B685A613B68DB78482B8E
:10072C0005D1BB69083301229A407B681A61BB6909
:10073C000133BB61BB69072BC1D97B687A695A60ED
:10074C0000BF2437BD4680BC704780B483B000AF77
:10075C0078607B684FF6FF721A807B6802229A7071
:10076C007B680422DA7000BF0C37BD4680BC704732
:10077C0080B485B000AF78600B467B800023FB73A0
:10078C007B689A687B881340002B02D00123FB7393
:10079C0001E00023FB73FB7B18461437BD4680BC7D
:1007AC00704780B483B000AF78607B689B689BB265
:1007BC0018460C37BD4680BC704780B485B000AF7E
:1007CC0078600B467B800023FB737B68DA687B8840
:1007DC001340002B02D00123FB7301E00023FB73B9
:1007EC00FB7B18461437BD4680BC704780B483B081
:1007FC0000AF78607B68DB689BB218460C37BD464F
:10080C0080BC704780B483B000AF78600B467B80AF
:10081C007A887B681A6100BF0C37BD4680BC704774
:10082C0080B483B000AF78600B467B807A887B689D
:10083C005A6100BF0C37BD4680BC704780B483B092
:10084C0000AF78600B467B8013467B707B78002B67
:10085C0003D07A887B681A6102E07A887B685A61D7
:10086C0000BF0C37BD4680BC704780B483B000AF6E
:10087C0078600B467B807A887B68DA6000BF0C3727
:10088C00BD4680BC704780B485B000AF78600B4625
:10089C007B804FF48033FB607B88FA681343FB60EA
:1008AC007B68FA689A617A887B689A617B68FA68D7
:1008BC009A617B689B69FB607B689B69FB6000BFEE
:1008CC001437BD4680BC704780B485B000AF03467A
:1008DC000A46FB711346BB710023FB600C4B1B6873
:1008EC00FB60FA684FF680731340FB60FB791B01C9
:1008FC00FA681343FB60BB79FA681343FB60044A44
:10090C00FB68136000BF1437BD4680BC704700BF46
:10091C000000014080B483B000AF0346FB71044A71
:10092C00FB79136000BF0C37BD4680BC704700BF1D
:10093C001C00204280B487B000AF78600B46FB707F
:10094C0000233B610023FB6000237B610023BB6021
:10095C00214B5B687B617B681B0C03F00F03BB6056
:10096C007B689BB23B617B6803F40013002B04D0C3
:10097C007B6923F0E0637B6114E07B6803F48013F4
:10098C00002B0AD00322BB6802FA03F3FB60FB685E
:10099C00DB437A6913407B6104E03B69DB437A6992
:1009AC0013407B61FB78002B0ED07B6803F40013A3
:1009BC00002B05D03B691B047A6913437B6103E070
:1009CC007A693B6913437B61034A7B69536000BFBF
:1009DC001C37BD4680BC70470000014080B485B018
:1009EC0000AF03460A46FB711346BB710023FB6044
:1009FC00BB7903F003039B000F2202FA03F3FB60A5
:100A0C00154ABB799B08DBB2023352F82320FB68F2
:100A1C00DB431148B9798908C9B21A408B1C40F8DC
:100A2C0023200D4ABB799B08DBB2023352F82320FA
:100A3C00F979BB7903F003039B0001FA03F3064831
:100A4C00B9798908C9B21A438B1C40F8232000BF1E
:100A5C001437BD4680BC70470000014080B483B0A1
:100A6C0000AF00237B60144B4FF0FF32C3F88020A3
:100A7C00114B40F2FF72C3F884200F4B4FF0FF3242
:100A8C00C3F880210C4B40F2FF72C3F88421002381
:100A9C007B6008E0084A7B68C033002142F82310D1
:100AAC007B6801337B607B680A2BF3D900BF00BFE6
:100ABC000C37BD4680BC704700E100E080B483B0C9
:100ACC0000AF00237B60194B4FF020625A60174B2C
:100ADC0000229A60154B164ADA60144B00221A61F8
:100AEC00124B00225A6100237B6008E00F4A7B689E
:100AFC000633002142F823107B6801337B607B684E
:100B0C00022BF3D9094B00225A62084B4FF0FF32EB
:100B1C009A62064B4FF0FF32DA62044B4FF0FF3211
:100B2C001A6300BF0C37BD4680BC704700ED00E077
:100B3C000000FA0580B483B000AF7860054A7B688A
:100B4C0043F0BF6343F40033D36000BF0C37BD46A2
:100B5C0080BC704700ED00E080B489B000AF7860D5
:100B6C000023FB610023BB6100237B6100233B61FD
:100B7C000F23FB607B68DB78002B62D03B4BDB6880
:100B8C00DB431B0A03F00703FB61FB69C3F104039E
:100B9C003B61FA68FB6922FA03F3FB607B685B78C4
:100BAC001A463B6902FA03F3FB617B689B781A4691
:100BBC00FB681340FA691343FB61FB691B01FB6182
:100BCC007B681B7803F00303DB00FA6902FA03F37A
:100BDC00FB61274A7B681B789B08DBB2C03352F859
:100BEC002330BB617B681B7803F00303DB00FF221F
:100BFC0002FA03F37B617B69DB43BA691340BB6187
:100C0C00FA697B691340FB61BA69FB691343BB61E9
:100C1C0017497B681B789B08DBB2C033BA6941F873
:100C2C0023207B681B7803F01F0311497A68127824
:100C3C005209D2B21046012202FA03F341F82030D5
:100C4C000FE07B681B7803F01F0309497A68127860
:100C5C005209D2B2104601229A4000F1200341F809
:100C6C00232000BF2437BD4680BC704700ED00E058
:100C7C0000E100E080B483B000AF78607B680022B4
:100C8C001A707B6800225A707B6800229A707B680D
:100C9C000022DA7000BF0C37BD4680BC704780B5AF
:100CAC0000AF00F0B0FE00BF80BD80B500AF00F01B
:100CBC00ACFE00BF80BD80B500AF00F0A8FE00BF49
:100CCC0080BD80B500AF00F0A4FE00BF80BD80B534
:100CDC0082B000AF78607B681B01184600F09BFE69
:100CEC0000BF0837BD4680BD80B500AF00F096FE52
:100CFC000346184680BD80B400AF054B5B681B0BE8
:100D0C009BB2C3F309039BB21846BD4680BC704727
:100D1C0000ED00E080B485B000AF0346FB7100230A
:100D2C00FB730023BB60FB7903F01F03012202FA63
:100D3C0003F3BB600B4AFB795B09DBB2403352F81F
:100D4C002320BB681340BA689A4202D10123FB737B
:100D5C0001E00023FB73FB7B18461437BD4680BCB7
:100D6C00704700BF00E100E080B483B000AF0346E1
:100D7C00FB71044AFB79136000BF0C37BD4680BC85
:100D8C00704700BF00EF00E080B483B000AF0346B3
:100D9C00FB71FB7903F01F030749FA795209D2B2B0
:100DAC00104601229A4000F1600341F8232000BF55
:100DBC000C37BD4680BC704700E100E080B400AF4A
:100DCC00044B5B689BB2C3F309039BB21846BD4648
:100DDC0080BC704700ED00E080B485B000AF0346E6
:100DEC00FB710023FB730023BB60FB7903F01F0333
:100DFC00012202FA03F3BB600B4AFB795B09DBB2FD
:100E0C00803352F82320BB681340BA689A4202D14F
:100E1C000123FB7301E00023FB73FB7B18461437A3
:100E2C00BD4680BC704700BF00E100E080B400AF5D
:100E3C00024B1B681846BD4680BC704700ED00E0B5
:100E4C0080B483B000AF786039603B6823F06043B6
:100E5C0023F07F0304497A6813438B6000BF0C377F
:100E6C00BD4680BC704700BF00ED00E080B400AF11
:100E7C00034B044ADA6000BFBD4680BC704700BF1C
:100E8C0000ED00E00400FA0580B400AF034B044A07
:100E9C00DA6000BFBD4680BC704700BF00ED00E0CB
:100EAC000100FA0580B483B000AF03460A46FB711B
:100EBC001346BB71BB79002B06D0094B1A69FB7921
:100ECC00074913430B6106E0054B1A69FB79DB43B9
:100EDC00034913400B6100BF0C37BD4680BC704703
:100EEC0000ED00E080B485B000AF78600B46FB707D
:100EFC000023FB607B6803F01F03012202FA03F35B
:100F0C00FB60FB78002B06D0094B5A6A0849FB683A
:100F1C0013434B6206E0064B5A6AFB68DB430449F9
:100F2C0013404B6200BF1437BD4680BC704700BFF6
:100F3C0000ED00E080B487B000AF78600B46FB702A
:100F4C001346BB7000237B61FF233B610023FB60D6
:100F5C000023BB60294BDB68DB431B0A03F0070350
:100F6C00BB60BB68C3F104037B613A69BB6822FABE
:100F7C0003F33B61FA787B6902FA03F3BB60BA783E
:100F8C003B691340BA681343BB60BB681B01BB6071
:100F9C007B6803F0C0037B617B699B097B617B6889
:100FAC001B0A03F003033B613B69DB00BA6802FADE
:100FBC0003F3BB603B69DB00FF2202FA03F3FB6027
:100FCC000E4A7B69063352F82320FB68DB430B493E
:100FDC001A407B69063341F82320084A7B690633A3
:100FEC0052F823200549BB681A437B69063341F844
:100FFC00232000BF1C37BD4680BC704700ED00E0CD
:10100C0080B487B000AF78600023FB7500233B6190
:10101C000023FB607B689B0AFB60FB6803F00F03FB
:10102C00FB600122FB6802FA03F3FB60094B5B6A6D
:10103C00FA6813403B613A69FB689A4202D101237A
:10104C00FB7501E00023FB75FB7D18461C37BD4684
:10105C0080BC704700ED00E080B485B000AF7860D4
:10106C000023FB607B6803F01F03FB60064B5A6890
:10107C000121FB6801FA03F3034913434B6000BFE2
:10108C001437BD4680BC704700ED00E080B485B0DD
:10109C0000AF78600023FB607B6803F01F03FB60EC
:1010AC00074B5A68FB68013B012101FA03F3044921
:1010BC0013434B6000BF1437BD4680BC704700BF64
:1010CC0000ED00E080B487B000AF78600023FB75C2
:1010DC0000233B610023FB607B689B0B03F00F0339
:1010EC00FB600122FB6802FA03F3FB60094B5B6AAD
:1010FC00FA6813403B613A69FB689A4202D10123BA
:10110C00FB7501E00023FB75FB7D18461C37BD46C3
:10111C0080BC704700ED00E080B487B000AF786011
:10112C0000237B6100233B610023FB607B689B0CED
:10113C0003F003033B617B681B0D03F00303FB60AF
:10114C003B69002B03D1114BDB6A7B6118E03B69D7
:10115C00012B12D10D4B9A6AFB68DB0022FA03F3C8
:10116C007B61FB68022B04D07B6903F00F037B616E
:10117C0006E07B69DBB27B6102E0044B1B6B7B619D
:10118C007B6918461C37BD4680BC704700ED00E0FB
:10119C0080B485B000AF78600023FB600023BB6097
:1011AC007B689B0D03F00103BB60BB68002B03D174
:1011BC00064B5B6BFB6002E0044B9B6BFB60FB68BC
:1011CC0018461437BD4680BC704700BF00ED00E0E8
:1011DC0080B400AF1A4B0022DA60194B00221A615E
:1011EC00174B14225A61164B00229A61144B0022A1
:1011FC00DA61134B1B68124A43F001031360104B66
:10120C005A680F490F4B13404B600D4B1B680C4A2F
:10121C0023F0847323F480331360094B1B68084A52
:10122C0023F480231360064B5B68054A23F4FE030A
:10123C005360034B00229A6000BFBD4680BC7047D0
:10124C00001002400000FFF880B483B000AF78605B
:10125C00134B1B68124A23F480331360104B1B682A
:10126C000F4A23F4802313607B68B3F5803F04D0CE
:10127C007B68B3F5802F07D00DE0094B1B68084A3B
:10128C0043F48033136006E0054B1B68044A43F4B7
:10129C00A023136000BF00BF0C37BD4680BC704755
:1012AC000010024080B500AF312000F015FB034662
:1012BC001A460D4B1A700D4B1B6801330B4A136009
:1012CC00094B1B78DBB2002B03D1084B1B68FF2B9F
:1012DC00EAD1312000F000FB0346002B01D00123A2
:1012EC0000E00023184680BD080000200C00002000
:1012FC0080B485B000AF0346FB710023FB600A4B42
:10130C001B68FB60FB6823F0F803FB60FB79DB00D8
:10131C00FA681343FB60044AFB68136000BF143780
:10132C00BD4680BC704700BF0010024080B483B043
:10133C0000AF0346FB71044AFB79136000BF0C3706
:10134C00BD4680BC704700BF0000424280B485B0EF
:10135C0000AF786039600023FB600A4B5B68FB6070
:10136C00FB6823F47C13FB607A683B681343FA68D0
:10137C001343FB60034AFB68536000BF1437BD4640
:10138C0080BC70470010024080B483B000AF0346AD
:10139C00FB71044AFB79136000BF0C37BD4680BC5F
:1013AC00704700BF6000424280B485B000AF7860E7
:1013BC000023FB60094B5B68FB60FB6823F00303B5
:1013CC00FB60FA687B681343FB60044AFB6853605C
:1013DC0000BF1437BD4680BC704700BF00100240F0
:1013EC0080B400AF044B5B68DBB203F00C03DBB2E0
:1013FC001846BD4680BC70470010024080B485B0D2
:10140C0000AF78600023FB60094B5B68FB60FB68F6
:10141C0023F0F003FB60FA687B681343FB60044A1B
:10142C00FB68536000BF1437BD4680BC704700BFDB
:10143C000010024080B485B000AF78600023FB60E0
:10144C00094B5B68FB60FB6823F4E063FB60FA68A4
:10145C007B681343FB60044AFB68536000BF14377E
:10146C00BD4680BC704700BF0010024080B485B000
:10147C0000AF78600023FB60094B5B68FB60FB6886
:10148C0023F46053FB607B68DB00FA681343FB605A
:10149C00034AFB68536000BF1437BD4680BC7047DD
:1014AC000010024080B483B000AF03460A46FB71C3
:1014BC001346BB71BB79002B08D00C4B1B78DAB2EE
:1014CC000A49FB791343DBB20B7009E0074B1B781D
:1014DC00DAB2FB79DB43DBB204491340DBB20B70AD
:1014EC0000BF0C37BD4680BC704700BF09100240DE
:1014FC0080B483B000AF7860034A7B68136000BF90
:10150C000C37BD4680BC7047D800424280B485B0D1
:10151C0000AF78600023FB60094B5B68FB60FB68E5
:10152C0023F44043FB60FA687B681343FB60044A76
:10153C00FB68536000BF1437BD4680BC704700BFCA
:10154C000010024080B483B000AF78600C4B0022D6
:10155C001A700B4B00221A707B68012B03D07B682E
:10156C00042B04D007E0064B01221A7003E0044B55
:10157C0005221A7000BF00BF0C37BD4680BC7047F7
:10158C002010024080B483B000AF0346FB71044AC4
:10159C00FB79136000BF0C37BD4680BC704700BFA1
:1015AC008004424280B483B000AF7860054B1A6A65
:1015BC0004497B6813430B6200BF0C37BD4680BCEB
:1015CC00704700BF0010024080B483B000AF0346E8
:1015DC00FB71044AFB79136000BF0C37BD4680BC1D
:1015EC00704700BF3C04424280B487B000AF7860C3
:1015FC0000237B6100233B610023FB600023BB6065
:10160C004D4B5B6803F00C037B617B69082B11D09D
:10161C007B69082B3AD87B69002B03D07B69042BA0
:10162C0004D033E07B68454A1A6033E07B68434A58
:10163C001A602FE0404B5B6803F470133B613B690D
:10164C009B0C02333B613C4B5B6803F48033FB60C7
:10165C00FB68002B06D13B69394A03FB02F27B681D
:10166C001A6017E0344B5B6803F40033002B06D090
:10167C003B69334A03FB02F27B681A600AE03B6960
:10168C002E4A03FB02F27B681A6003E07B682B4A4C
:10169C001A6000BF284B5B6803F0F0037B617B6929
:1016AC001B097B61274A7B6913441B78BB607B68F1
:1016BC001A68BB68DA407B685A601F4B5B6803F49E
:1016CC00E0637B617B691B0A7B611E4A7B69134467
:1016DC001B78BB607B685A68BB68DA407B689A6091
:1016EC00154B5B6803F460537B617B69DB0A7B61A0
:1016FC00144A7B6913441B78BB607B685A68BB68CF
:10170C00DA407B68DA600C4B5B6803F440437B6126
:10171C007B699B0B7B610C4A7B6913441B78BB6018
:10172C007B68DA68BB68B2FBF3F27B681A6100BFB6
:10173C001C37BD4680BC70470010024000127A0076
:10174C0000093D00A81A0008B81A000880B483B03C
:10175C0000AF78600B46FB70FB78002B06D0094B72
:10176C005A6908497B6813434B6106E0054B5A697B
:10177C007B68DB43034913404B6100BF0C37BD460C
:10178C0080BC70470010024080B483B000AF78601A
:10179C000B46FB70FB78002B06D0094B9A69084965
:1017AC007B6813438B6106E0054B9A697B68DB43CE
:1017BC00034913408B6100BF0C37BD4680BC70479A
:1017CC000010024080B483B000AF78600B46FB7011
:1017DC00FB78002B06D0094BDA6908497B68134368
:1017EC00CB6106E0054BDA697B68DB4303491340A8
:1017FC00CB6100BF0C37BD4680BC70470010024067
:10180C0080B483B000AF78600B46FB70FB78002B84
:10181C0006D0094BDA6808497B681343CB6006E0B5
:10182C00054BDA687B68DB4303491340CB6000BF90
:10183C000C37BD4680BC70470010024080B483B0AA
:10184C0000AF78600B46FB70FB78002B06D0094B81
:10185C001A6908497B6813430B6106E0054B1A694A
:10186C007B68DB43034913400B6100BF0C37BD465B
:10187C0080BC70470010024080B483B000AF0346B8
:10188C00FB71044AFB79136000BF0C37BD4680BC6A
:10189C00704700BF4004424280B483B000AF03469F
:1018AC00FB71044AFB79136000BF0C37BD4680BC4A
:1018BC00704700BF4C00424280B483B000AF034677
:1018CC00FB71044AFB79137000BF0C37BD4680BC1A
:1018DC00704700BF0710024080B487B000AF0346CA
:1018EC00FB710023FB6000237B610023FB74FB79FD
:1018FC005B09DBB2FB60FB68012B03D1124B1B684D
:10190C007B6109E0FB68022B03D10F4B1B6A7B61E7
:10191C0002E00D4B5B6A7B61FB7903F01F03FB60FC
:10192C007A69FB6822FA03F303F00103002B02D05F
:10193C000123FB7401E00023FB74FB7C18461C376D
:10194C00BD4680BC704700BF0010024080B400AFA1
:10195C00044B5B6A034A43F08073536200BFBD467D
:10196C0080BC70470010024080B485B000AF0346C5
:10197C00FB710023FB73084B9A68FB791340002B17
:10198C0002D00123FB7301E00023FB73FB7B1846A1
:10199C001437BD4680BC70470010024080B483B041
:1019AC0000AF0346FB71044AFB79137000BF0C3780
:1019BC00BD4680BC704700BF0A10024030BF704764
:1019CC0020BF704740BF7047BFF36F8F7047BFF3A6
:1019DC004F8F7047BFF35F8F704701DF7047EFF396
:1019EC001480704780F31488BFF36F8F7047EFF348
:1019FC000980704780F309887047EFF308807047BF
:101A0C0080F30888704772B6704762B6704771B63B
:101A1C00704761B6704780F311887047EFF31280FE
:101A2C00704740BA704700BA70470000684620F013
:101A3C0007018D4681B583B000AF134B7B60134B10
:101A4C003B6007E07A68131D7B603B68191D3960A9
:101A5C0012681A603B680E4A9342F3D30D4B3B60FD
:101A6C0004E03B681A1D3A6000221A603B680A4A7F
:101A7C009342F6D3FEF744FB00BF0C37BD46BDE8DE
:101A8C0081408546704700BFBC1A0008000000204A
:101A9C0000000020000000201000002000000000CA
:101AAC0001020304010203040607080902040608E4
:0C1ABC000DC0A0E1F8DF2DE904B04CE201
:0C1AC8000DC0A0E1F8DF2DE904B04CE2F5
:040000050800010CE2
:00000001FF
