:020000040800F2
:100000000000012059160008850E0008910E000816
:10001000970E00089D0E0008AF0E000800000000BB
:10002000000000000000000000000000A116000811
:10003000B50E000800000000A1160008A116000877
:10004000A1160008A1160008A1160008A1160008B4
:10005000A1160008A11600089D110008A1160008AD
:10006000B1110008C511000835120008A1160008DA
:10007000A1160008A1160008A1160008A116000884
:10008000A1160008A1160008A1160008A116000874
:10009000A1160008A1160008A1160008A116000864
:1000A000A1160008A1160008A1160008A116000854
:1000B000A11600081D150008A30E0008A1160008CF
:1000C000A1160008A1160008A1160008A116000834
:1000D000A1160008C50F0008FD0F00083510000824
:1000E000A5120008A1160008A1160008A116000814
:1000F000A1160008A1160008A1160008A116000804
:10010000A1160008A116000841150008A116000854
:10011000A1160008A11600081D160008A116000867
:10012000A1160008A1160008A1160008A1160008D3
:1001300000000000000000000000000000000000BF
:1001400000000000000000000000000000000000AF
:10015000000000000000000000000000000000009F
:10016000000000000000000000000000000000008F
:10017000000000000000000000000000000000007F
:10018000000000000000000000000000000000006F
:10019000000000000000000000000000000000005F
:1001A000000000000000000000000000000000004F
:1001B000000000000000000000000000000000003F
:1001C000000000000000000000000000000000002F
:1001D000000000000000000000000000000000001F
:0401E0005FF8E0F1F3
:1001E40010B5054C237833B9044B13B10448AFF36D
:1001F40000800123237010BD7C000020000000005B
:100204000827000808B5034B1BB103490348AFF3A3
:10021400008008BD000000008000002008270008BE
:1002240080B500AF154B1B68144A43F001031360FB
:10023400124B5A681149124B13404B600F4B1B6809
:100244000E4A23F0847323F4803313600B4B1B6832
:100254000A4A23F480231360084B5B68074A23F49B
:10026400FE035360054B4FF41F029A6000F00CF834
:10027400044B4FF000629A6000BF80BD0010024042
:100284000000FFF800ED00E080B500AF00F002F8D8
:1002940000BF80BD80B483B000AF00237B60002327
:1002A4003B603A4B1B68394A43F480331360374B45
:1002B4001B6803F400333B607B6801337B603B685D
:1002C400002B03D17B68B3F5A06FF0D12F4B1B68D3
:1002D40003F40033002B02D001233B6001E0002330
:1002E4003B603B68012B4BD1294B1B68284A43F0E8
:1002F40010031360264B1B68254A23F00303136085
:10030400234B1B68224A43F0020313601F4B1F4A0E
:100314005B6853601D4B1D4A5B6853601B4B5B68F5
:100324001A4A43F480635360184B5B68174A23F4FA
:100334007C135360154B5B68144A43F4E813536011
:10034400124B1B68114A43F08073136000BF0F4BBC
:100354001B6803F00073002BF9D00C4B5B680B4A4D
:1003640023F003035360094B5B68084A43F002031C
:10037400536000BF054B5B6803F00C03082BF9D1F5
:1003840000BF0C37BD4680BC704700BF0010024060
:100394000020024080B483B000AF7860054A7B68D7
:1003A40043F0BF6343F40033D36000BF0C37BD4652
:1003B40080BC704700ED00E080B487B000AF786087
:1003C40000237B6100233B610F23FB607B68DB78A8
:1003D400002B3AD0274BDB68DB431B0A03F00703EF
:1003E4007B617B69C3F104033B61FA687B6922FA90
:1003F40003F3FB607B685B781A463B6902FA03F3FC
:100404007B617B689B781A46FB6813407A691343C7
:100414007B617B691B017B61174A7B681B78796967
:10042400C9B213440A4683F800237B681B7803F09F
:100434001F0311497A6812785209D2B21046012278
:1004440002FA03F341F820300FE07B681B7803F0D5
:100454001F0309497A6812785209D2B21046012260
:100464009A4000F1200341F8232000BF1C37BD4609
:1004740080BC704700ED00E000E100E080B483B090
:1004840000AF78607B68042B06D1094B1B68084ACF
:1004940043F00403136005E0054B1B68044A23F092
:1004A4000403136000BF0C37BD4680BC704700BF17
:1004B40010E000E080B485B000AF78600023FB60FA
:1004C400344BFB607B689B79002B4FD0314B1A680F
:1004D4007B681B68DB432F4913400B602D4B5A6824
:1004E4007B681B68DB432B4913404B607B681B799B
:1004F4001A46FB681344FB60FB6819687B681A683A
:10050400FB680A431A60234B9A687B681B68DB43C9
:10051400204913408B601F4BDA687B681B68DB4300
:100524001C491340CB607B685B79102B0ED1194BAF
:100534009A687B681B68174913438B60154BDA680C
:100544007B681B6813491343CB601DE0114BFB60B0
:100554007B685B791A46FB681344FB60FB68196887
:100564007B681A68FB680A431A600DE07B681B7994
:100574001A46FB681344FB60FB6819687B681B68B8
:10058400DA43FB680A401A6000BF1437BD4680BCDA
:10059400704700BF0004014080B485B000AF7860AC
:1005A4000023FB730023BB600C4B1B687A68134069
:1005B400BB600A4B5A697B681340002B05D0BB68AB
:1005C400002B02D00123FB7301E00023FB73FB7BB0
:1005D40018461437BD4680BC704700BF0004014074
:1005E40080B483B000AF7860034A7B68536100BF76
:1005F4000C37BD4680BC70470004014080B489B00C
:1006040000AF786039600023FB6100233B61002365
:10061400BB610023FB6000237B610023BB603B685C
:10062400DB7803F00F03FB613B68DB7803F0100316
:10063400002B05D03B689B781A46FB691343FB618A
:100644003B681B88DBB2002B44D07B681B687B6152
:100654000023BB6138E00122BB6902FA03F3FB60AB
:100664003B681B881A46FB6813403B613A69FB6888
:100674009A4226D1BB699B00FB600F22FB6802FAF9
:1006840003F3BB60BB68DB437A6913407B61FA699F
:10069400FB6802FA03F37A6913437B613B68DB78F6
:1006A400282B05D10122BB699A407B685A6108E076
:1006B4003B68DB78482B04D10122BB699A407B68F4
:1006C4001A61BB690133BB61BB69072BC3D97B6862
:1006D4007A691A603B681B88FF2B46D97B685B6884
:1006E4007B610023BB613AE0BB690833012202FA53
:1006F40003F3FB603B681B881A46FB6813403B61AD
:100704003A69FB689A4227D1BB699B00FB600F22C0
:10071400FB6802FA03F3BB60BB68DB437A691340EE
:100724007B61FA69FB6802FA03F37A6913437B611C
:100734003B68DB78282B05D1BB69083301229A403A
:100744007B685A613B68DB78482B05D1BB69083369
:1007540001229A407B681A61BB690133BB61BB69A2
:10076400072BC1D97B687A695A6000BF2437BD461C
:1007740080BC704780B483B000AF78600B467B8048
:100784007A887B681A6100BF0C37BD4680BC70470D
:1007940080B483B000AF78600B467B807A887B6836
:1007A4005A6100BF0C37BD4680BC704780B485B029
:1007B40000AF03460A46FB711346BB710023FB607E
:1007C400BB7903F003039B000F2202FA03F3FB60DF
:1007D400154ABB799B08DBB2023352F82320FB682D
:1007E400DB431148B9798908C9B21A408B1C40F817
:1007F40023200D4ABB799B08DBB2023352F8232035
:10080400F979BB7903F003039B0001FA03F306486B
:10081400B9798908C9B21A438B1C40F8232000BF58
:100824001437BD4680BC70470000014080B487B0D7
:1008340000AF786000237B6100233B610023FB60F1
:100844000023BB604F4B5B6803F00C037B617B6947
:10085400082B11D07B69082B3AD87B69002B03D075
:100864007B69042B04D033E07B68474A1A6033E089
:100874007B68454A1A602FE0424B5B6803F47013AF
:100884003B61404B5B6803F48033FB603B699B0C2A
:1008940002333B61FB68002B06D13B693B4A03FBF7
:1008A40002F27B681A6017E0364B5B6803F400338E
:1008B400002B06D03B69354A03FB02F27B681A60C1
:1008C4000AE03B69304A03FB02F27B681A6003E0EA
:1008D4007B682D4A1A6000BF2A4B5B6803F0F00363
:1008E4007B617B691B097B61294A7B6913441B7803
:1008F400DBB2BB607B681A68BB68DA407B685A600D
:10090400204B5B6803F4E0637B617B691B0A7B61BA
:100914001F4A7B6913441B78DBB2BB607B685A684F
:10092400BB68DA407B689A60164B5B6803F46053DB
:100934007B617B69DB0A7B61154A7B6913441B7805
:10094400DBB2BB607B685A68BB68DA407B68DA60FC
:100954000C4B5B6803F440437B617B699B0B7B61BD
:100964000C4A7B6913441B78DBB2BB607B68DA6892
:10097400BB68B2FBF3F27B681A6100BF1C37BD464B
:1009840080BC70470010024000127A0000093D004C
:10099400040000201400002080B483B000AF78600D
:1009A4000B46FB70FB78002B06D0094B9A6908496B
:1009B4007B6813438B6106E0054B9A697B68DB43D4
:1009C400034913408B6100BF0C37BD4680BC7047A0
:1009D4000010024080B485B000AF78600B467B8085
:1009E4000023FB817B681B8CFB81FB8923F00203C2
:1009F400FB81FA897B881343FB817B68FA891A841B
:100A040000BF1437BD4680BC704780B483B000AFCC
:100A140078600B467B807B687A889A8400BF0C37A9
:100A2400BD4680BC704780B483B000AF78607B68FB
:100A34009B8E9BB218460C37BD4680BC704780B471
:100A440085B000AF78600B467B800023FB730023E6
:100A5400BB8100237B817B681B8A9AB27B8813400D
:100A6400BB817B689B899AB27B8813407B81BB895D
:100A7400002B05D07B89002B02D00123FB7301E0FE
:100A84000023FB73FB7B18461437BD4680BC7047BC
:100A940080B483B000AF78600B467B807B88DB43F7
:100AA4009AB27B681A8200BF0C37BD4680BC70477F
:100AB40080B58CB000AF786039600023FB620023FE
:100AC400BB6200237B6200233B620023FB617B68E3
:100AD400FB617B681B8A9BB2FB62FA6A4CF6FF736C
:100AE4001340FB623B68DB881A46FB6A1343FB62D4
:100AF400FB6A9AB27B681A827B689B899BB2FB6211
:100B0400FA6A4EF6F3131340FB623B689A883B681B
:100B14001B8913439AB23B685B8913439BB21A4601
:100B2400FB6A1343FB62FB6A9AB27B689A817B6817
:100B34009B8A9BB2FB62FA6A4FF6FF431340FB6247
:100B44003B689B891A46FB6A1343FB62FB6A9AB2B1
:100B54007B689A8207F108031846FFF767FEFB6972
:100B64002E4A934202D17B69BB6201E03B69BB62BE
:100B74007B689B899BB21BB2002B0CDABA6A1346C2
:100B84009B0013449A001A443B681B685B00B2FB49
:100B9400F3F37B620BE0BA6A13469B0013449A009A
:100BA4001A443B681B689B00B2FBF3F37B627B6ACD
:100BB4001B4AA2FB03235B091B01FB62FB6A1B09A3
:100BC400642202FB03F37A6AD31A3B627B689B8933
:100BD4009BB21BB2002B0CDA3B6ADB003233104AA7
:100BE400A2FB03235B0903F00703FA6A1343FB62C6
:100BF4000BE03B6A1B013233094AA2FB03235B0966
:100C040003F00F03FA6A1343FB62FB6A9AB27B6830
:100C14001A8100BF3037BD4680BD00BF0038014097
:100C24001F85EB5180B483B000AF78600B46FB7036
:100C3400FB78002B08D07B689B899BB243F400535C
:100C44009AB27B689A8107E07B689B899BB223F404
:100C540000539AB27B689A8100BF0C37BD4680BCB2
:100C6400704780B487B000AF78600B467B80134632
:100C74007B7000233B610023FB600023BB600023E7
:100C84007B617B687B617B88DBB25B09DBB23B61A8
:100C94007B8803F01F03FB600122FB6802FA03F365
:100CA400BB603B69012B03D17B690C337B6109E099
:100CB4003B69022B03D17B6910337B6102E07B69C2
:100CC40014337B617B78002B06D07B6919687B69C0
:100CD400BA680A431A6006E07B691968BB68DA439C
:100CE4007B690A401A6000BF1C37BD4680BC704750
:100CF40080B483B000AF78600B467B807B88C3F3FD
:100D040008039AB27B689A8000BF0C37BD4680BC4A
:100D1400704780B483B000AF78607B689B889BB2D7
:100D2400C3F308039BB218460C37BD4680BC70471A
:100D340080B487B000AF78600B467B800023FB60F3
:100D440000237B610023BB600023FB747B88DBB240
:100D54005B09DBB2BB607B8803F01F037B6101226C
:100D64007B6902FA03F37B61BB68012B07D17B68C3
:100D74009B899BB21A467B6913407B6111E0BB6877
:100D8400022B07D17B681B8A9BB21A467B691340EE
:100D94007B6106E07B689B8A9BB21A467B691340A1
:100DA4007B617B881B0A9BB2FB600122FB6802FA11
:100DB40003F3FB607B681B889BB21A46FB681340F5
:100DC400FB607B69002B05D0FB68002B02D001235C
:100DD400FB7401E00023FB74FB7C18461C37BD4602
:100DE40080BC704780B500AF4FF4E13000F096F856
:100DF400012000F01FF800F037F900F05FF800F070
:100E0400F9FA4FF4E13000F089F80121012000F0F3
:100E14007DFA0121012000F091FA4FF47A7000F07C
:100E24007FF90021012000F089FA40F6131000F048
:100E340077F9EEE780B485B000AF0346FB71FB7928
:100E4400FB60FB685B06FB600B4B9B690A4A43F043
:100E540001039361094B5B68084A23F0E063536024
:100E6400064B5A680549FB6813434B6000BF1437AF
:100E7400BD4680BC704700BF001002400000014026
:100E840080B400AF00BFBD4680BC704780B400AFE3
:100E9400FEE780B400AFFEE780B400AFFEE780B4A5
:100EA40000AF00BFBD4680BC704780B400AFFEE712
:100EB40080B400AF00BFBD4680BC704780B500AFB2
:100EC4004FF4A060FFF766FA00BF80BD80B487B01E
:100ED40000AFF860B9607A6000237B6111E000BF65
:100EE4000D4B1B889BB203F04003002BF8D07B69A9
:100EF400BA6813441A78084B92B29A807B6901331A
:100F04007B617A697B689A42E9DB7B6818461C3707
:100F1400BD4680BC704700BF0038014080B588B032
:100F240000AF7860012144F20400FFF735FD4FF46F
:100F34000073BB830323BB771823FB7707F11C03E0
:100F440019461D48FFF75AFB4FF48063BB83042303
:100F5400FB7707F11C0319461748FFF74FFB2523BE
:100F64003B7203237B720323BB720123FB7207F1E1
:100F740008031846FFF720FA7B68FB6000233B82D6
:100F840000237B820023BB8200233B830C23FB8250
:100F940007F10C0319460948FFF78AFD012240F2C4
:100FA40025510648FFF75DFE01210448FFF73AFE8C
:100FB40000BF2037BD4680BD000801400038014015
:100FC40080B582B000AF40F225510A48FFF7B0FE69
:100FD4000346002B0AD00748FFF79BFE0346FB712C
:100FE400FB799BB219460348FFF782FE00BF08371E
:100FF400BD4680BD0038014080B582B000AF40F2EC
:1010040025510A48FFF794FE0346002B0AD00748EF
:10101400FFF77FFE0346FB71FB799BB21946034839
:10102400FFF766FE00BF0837BD4680BD00440040A0
:1010340080B582B000AF40F225510A48FFF778FE30
:101044000346002B0AD00748FFF763FE0346FB71F3
:10105400FB799BB219460348FFF74AFE00BF0837E5
:10106400BD4680BD0048004080B500AF6FF004006D
:10107400FFF704FA0B4B1B680B4AA2FB03235B0D1F
:10108400DAB20A4B1A70094B1B789BB21A4652010A
:10109400D21A92001344DB009AB2054B1A8000BFA7
:1010A40080BD00BF0000002083DE1B4398000020A9
:1010B4009A00002080B485B000AF0346FB80FB8813
:1010C400154A12881146154A01FB03F35360134B6A
:1010D40000229A60114B1B68104A43F0010313600D
:1010E4000E4B1B68FB60FB6803F00103002B04D06C
:1010F400FB6803F48033002BF2D0084B1B68074ACB
:1011040023F001031360054B00229A6000BF1437DB
:10111400BD4680BC704700BF9A00002010E000E08C
:1011240080B584B000AF0346FB80FB88194AA2FB5C
:1011340003235B099BB2BB730023FB7306E040F2FD
:10114400DC50FFF7B7FFFB7B0133FB73FA7BBB7B00
:101154009A42F4D3FB880F4AA2FB0312520940F2CD
:10116400DC5101FB02F29B1A9BB2002B0DD0FB88D1
:10117400084AA2FB0312520940F2DC5101FB02F2BD
:101184009B1A9BB21846FFF795FF00BF1037BD4668
:1011940080BD00BFF119760580B500AF0A20FFF7C6
:1011A40089FF0120FFF71CFA00BF80BD80B500AFA6
:1011B4000A20FFF77FFF0420FFF712FA00BF80BD6B
:1011C40080B500AF0F20FFF775FF054B01221A70A1
:1011D400044800F017FB0820FFF702FA00BF80BDA7
:1011E4009D0000202027000880B584B000AF0321B3
:1011F4000420FFF7DBFA0823BB6000233B730C23B6
:101204007B730123BB7307F108031846FFF752F9F8
:1012140009233B7102237B710123BB710123FB7101
:101224003B1D1846FFF7C8F800BF1037BD4680BD08
:1012340080B500AF0F20FFF73DFF054B01221A7068
:10124400044800F0DFFA1020FFF7CAF900BF80BDA0
:101254009E0000203027000880B584B000AF042130
:101264000420FFF7A3FA1023BB6000233B730C2375
:101274007B730123BB7307F108031846FFF71AF9C0
:101284000A233B7102237B710023BB710123FB7191
:101294003B1D1846FFF790F800BF1037BD4680BDD0
:1012A40080B500AF4FF48050FFF776F90346012B69
:1012B40020D1134B1B78012B1CD8114B1B78002B0E
:1012C40009D1104B00221A600E4B01221A600E4BFA
:1012D40001221A6008E00C4B00221A60094B00221C
:1012E4001A60084B01221A60054B1B780133DAB2ED
:1012F400034B1A704FF48050FFF772F900BF80BDA2
:101304009C000020840123428C01234280B582B0DA
:1013140000AF03460A46FB711346BB71BB79002B31
:1013240004D0FB79184600F087F803E0FB791846EF
:1013340000F046F800BF0837BD4680BD80B582B0D6
:1013440000AF03460A46FB711346BB71BA79FB79B9
:101354001146184600F0B0F800BF0837BD4680BDFE
:1013640080B582B000AF01214020FFF715FB0823B0
:10137400BB804823FB710323BB713B1D1946034803
:10138400FFF73CF900BF0837BD4680BD0018014097
:1013940080B582B000AF01214020FFF7FDFA102391
:1013A400BB804823FB710323BB713B1D19460348D3
:1013B400FFF724F900BF0837BD4680BD001801407F
:1013C40080B582B000AF0346FB71FB790A2B02D0D3
:1013D4000B2B05D009E0FFF7C3FFFFF705FF04E07F
:1013E400FFF7D6FFFFF738FF00BF00BF0837BD4641
:1013F40080BD000080B582B000AF01210820FFF756
:10140400CBFA1023FB710323BB712023BB803B1D4C
:1014140019460748FFF7F2F820210548FFF7AAF913
:1014240020210448FFF7B4F900BF0837BD4680BD4A
:10143400000C01400008014080B584B000AF0346B1
:10144400FB711023FB730323BB73FB79002B02D0C6
:10145400012B11D021E001210820FFF79DFA202360
:10146400BB8107F10C0319461048FFF7C7F8202188
:101474000E48FFF78DF914E001214020FFF78CFAA4
:101484002023BB8107F10C0319460948FFF7B6F87E
:1014940020210748FFF77CF903E0064800F0B2F981
:1014A40000BF00BF1037BD4680BD00BF000C014027
:1014B400001801405427000880B582B000AF0346ED
:1014C4000A46FB711346BB71FB79002B02D0012B3A
:1014D4000CD018E0BB79002B04D020210C48FFF776
:1014E40049F903E020210A48FFF752F9BB79002BA0
:1014F40004D020210748FFF73DF903E020210548E7
:10150400FFF746F900BF00BF0837BD4680BD00BFE6
:10151400000C01400018014080B500AF01210648CD
:10152400FFF78DFA0346002B03D001210248FFF791
:10153400AFFA00BF80BD00BF0004004080B500AF1B
:10154400324B1B785BB2002B59DB01213048FFF78B
:1015540076FA0346002B1DD02C4B1B7803F0400376
:10156400002B17D0294B1B7803F03F033F2B0BD1E3
:10157400264B1B7863F07F03DAB2244B1A70254B99
:101584004FF6FF721A8005E0204B1B780133DAB264
:101594001E4B1A7002211E48FFF751FA0346002B16
:1015A4002DD01A4B1B7803F04003002B12D0174B9D
:1015B4001B7863F07F03DAB2144B1A701448FFF7F8
:1015C40032FA03461A46134B1A8000211048FFF7DB
:1015D40001FA14E00D4B00221A700E4B00221A80FF
:1015E40000210B48FFF711FA084B1B7843F0400326
:1015F400DAB2064B1A7002210548FFF7EBF9032112
:101604000348FFF745FA00BF80BD00BF9F000020DC
:10161400000C0040A000002080B500AF01210A4862
:10162400FFF70DFA0346002B08D0084B1B78194628
:10163400074800F061F8054B00221A7001210248A6
:10164400FFF726FA00BF80BD00100040A200002072
:10165400682700080C480D490D4A002302E0D458BD
:10166400C4500433C4188C42F9D30A4A0A4C0023E8
:1016740001E013600432A242FBD3FEF7D1FD00F077
:101684000FF8FFF7AFFB7047000000207C0000203C
:10169400182800087C000020B8000020FEE70000A5
:1016A40070B500260C4D0D4C641BA410A64209D144
:1016B40001F028F800260A4D0A4C641BA410A64227
:1016C40005D170BD55F8043B98470136EEE755F84F
:1016D400043B98470136F2E7102800081028000858
:1016E400102800081428000803460244934200D13D
:1016F400704703F8011BF9E70FB40A4B13B51C68D4
:1017040024B1A36913B9204600F05AFA05AB204668
:10171400049AA168019300F023FC02B0BDE81040D4
:1017240004B070471800002070B50E46054618B185
:1017340083690BB900F044FAAB69AC6813B9284665
:1017440000F03EFA2C4B9C4220D16C68636EDB07A0
:1017540005D4A389980502D4A06D00F0CFFAA3891B
:1017640019071DD52369DBB1013EA36816F8011FD3
:10177400013BA36039BB002B38DA22460A212846F4
:1017840000F048F8013011D00A2511E01B4B9C42AF
:1017940001D1AC68DAE71A4B9C4208BFEC68D5E784
:1017A4002146284600F088F80028DDD04FF0FF35A8
:1017B400636EDA0705D4A3899B0502D4A06D00F0FB
:1017C4009EFA284670BD002B04DAA2699A4206DC10
:1017D4000A2904D023685A1C22601970C5E72246DE
:1017E400284600F017F80130BFD1DFE70A25236847
:1017F4005A1C22601D70DBE79C270008BC270008E8
:101804007C270008024B01461868FFF78DBF00BF14
:1018140018000020F8B50E461446054618B1836931
:101824000BB900F0CDF9214B9C422BD16C68A36914
:10183400A360A3891A072FD523696BB32369206892
:10184400F6B2C01A63693746834204DC214628464F
:1018540000F022F930BBA3680130013BA360236888
:101864005A1C22601E706369834204D0A389DB077B
:1018740006D50A2E04D12146284600F00DF988B970
:101884003846F8BD0A4B9C4201D1AC68CFE7094BFE
:101894009C4208BFEC68CAE72146284600F00CF8D1
:1018A4000028CBD04FF0FF37EAE700BF9C270008A1
:1018B400BC2700087C270008324B70B51D6806461B
:1018C4000C4625B1AB6913B9284600F079F92E4BC3
:1018D4009C420FD16C68A389B4F90C2019072CD44D
:1018E400DD0611D40923336042F040034FF0FF308A
:1018F400A3813EE0254B9C4201D1AC68EBE7244B2D
:101904009C4208BFEC68E6E7580712D5616B41B109
:1019140004F14403994202D0304600F057FA002300
:101924006363A38923F02403A381002363602369F1
:101934002360A38943F00803A38123694BB9A389D6
:1019440003F42073B3F5007F03D02146304600F042
:10195400FDF9A089B4F90C2010F001030AD000238A
:10196400A36063695B42A361236943B910F08000FB
:10197400BAD170BD810758BF6369A360F4E7002042
:10198400F7E700BF180000209C270008BC270008C8
:101994007C2700088A89F8B5054610070C4657D4F9
:1019A4004B68002B04DC0B6C002B01DC0020F8BD21
:1019B400E66A002EFAD0002312F480522F682B60BE
:1019C40032D0606DA3895A0705D56368C01A636B6A
:1019D4000BB1236CC01A00230246E66A2846216A2A
:1019E400B047431CA38906D129681D292CD8294A4C
:1019F400CA40D60728D5002262602269D904226031
:101A040004D5421C01D12B6803B96065616B2F605A
:101A14000029CBD004F14403994202D0284600F0B7
:101A2400D5F900206063C2E7216A01232846B04744
:101A3400411CC7D12B68002BC4D01D2B01D0162B01
:101A440001D12F60B2E7A38943F04003A381AEE73D
:101A54000F69002FAAD0930718BF00230E6808BF90
:101A64004B69F61B0F608B60002E9FDD33463A46B0
:101A74002846216AD4F828C0E047002806DCA38958
:101A84004FF0FF3043F04003A38190E70744361A38
:101A9400EAE700BF0100402038B50B6905460C4653
:101AA40013B90025284638BD18B183690BB900F075
:101AB40087F8144B9C421BD16C68B4F90C30002B92
:101AC400EFD0626ED00704D4990502D4A06D00F063
:101AD40015F928462146FFF75DFF636E0546DA07D0
:101AE400E0D4A3899B05DDD4A06D00F008F9D9E703
:101AF400054B9C4201D1AC68DFE7044B9C4208BF14
:101B0400EC68DAE79C270008BC2700087C2700085B
:101B1400002310B50446C0E90033C0E904338360F0
:101B240081814366C2818361194608225C30FFF7D4
:101B3400DBFD054B24626362044BA362044BE36246
:101B4400044B236310BD00BF112500083325000892
:101B54006B2500088F250008014900F0AFB800BFCD
:101B64009D1A0008682270B54D1E55430E4605F1B6
:101B7400740100F073F9044640B10021C0E9001675
:101B84000C30A06005F16802FFF7AEFD204670BD81
:101B9400014800F0B3B800BFA4000020014800F0E1
:101BA400AEB800BFA4000020014800F0A7B800BFF1
:101BB400A5000020014800F0A2B800BFA500002045
:101BC40010B50446FFF7F0FFA3691BB1BDE8104050
:101BD400FFF7F0BFC4E912332365134B134A1B68A4
:101BE400A262A34208BF0123204608BFA36100F0FC
:101BF4001FF86060204600F01BF8A060204600F04B
:101C040017F800220421E0606068FFF781FF0122D9
:101C14000921A068FFF77CFF02221221E068FFF788
:101C240077FF0123A361D1E7782700085D1B000833
:101C3400F8B50746FFF7ACFF1E4B1E68B36913B92E
:101C44003046FFF7BDFF4836D6E90134013B03D5E2
:101C540033680BB33668F7E7B4F90C50D5B9164BB3
:101C640004F15800E360656600F047F8FFF796FF5B
:101C740008222946C4E90155C4E904552560A56133
:101C840004F15C00FFF730FDC4E90D55C4E91255B9
:101C94002046F8BD6834D9E704213846FFF762FFCF
:101CA400044630600028D5D1FFF778FF0C233B6051
:101CB400EEE700BF782700080100FFFF2DE9F84395
:101CC40006468846002700F14804D4E90195B9F195
:101CD400010905D52468002CF7D13846BDE8F883FE
:101CE400AB89012B07D9B5F90E30013303D029464E
:101CF4003046C04707436835E9E770477047704787
:101D040070B50E46B1F90E10144600291D4696B062
:101D140008DA0022B6F90C302A601A0610D44FF4FF
:101D240080630EE06A4600F057FC0028F1DB019A5C
:101D340002F47042A2F500535A425A412A60EEE777
:101D440040230020236016B070BD00008B8973B55A
:101D54009D0706460C4607D504F14703236023611B
:101D64000123636102B070BD6A4601ABFFF7C8FF8F
:101D740000990546304600F071F848B9B4F90C30C2
:101D84009A05EFD423F0030343F00203A381E3E7AE
:101D94000D4BB362A389206043F08003A381009BB1
:101DA40020616361019B5BB13046B4F90E1000F011
:101DB40025FC28B1A38923F0030343F00103A38185
:101DC400A0890543A581CDE75D1B000838B505460C
:101DD400002940D051F8043C0C1F002BB8BFE41874
:101DE40000F03CFC1C4A136833B963601460284655
:101DF400BDE8384000F038BCA34208D92068211857
:101E04008B4201BF19685B6809182160EDE71A4627
:101E14005B680BB1A342FAD911685018A0420BD1E8
:101E240020680144501883421160E0D118685B684F
:101E3400014411605360DAE702D90C232B60D6E722
:101E4400206821188B4201BF19685B68091821605A
:101E540063605460CBE738BDA8000020F8B5CD1C02
:101E640025F0030508350C2D38BF0C25002D06463A
:101E740001DBA94203D90C2333600020F8BD00F034
:101E8400EDFB21490A6814469CB9204F3B6823B9ED
:101E94002146304600F02AFB38602946304600F0DF
:101EA40025FB431C23D10C233046336000F0DCFBBC
:101EB400E3E723685B1B17D40B2B03D923601C4473
:101EC400256004E06368A2420CBF0B605360304697
:101ED40000F0CAFB04F10B00231D20F00700C21A16
:101EE400CCD01B1AA350C9E722466468CCE7C41CB3
:101EF40024F00304A042E3D0211A304600F0F6FA9D
:101F04000130DDD1CFE700BFA8000020AC000020E5
:101F1400936810B4013B002B936007DA9469A342E1
:101F240001DB0A2902D110BCFFF774BC1368581CEA
:101F340010601970084610BC7047F8B506460F4685
:101F44001446D518AC4201D1002007E03A46304689
:101F540014F8011BFFF7DCFF431CF3D1F8BD0000AC
:101F64002DE9F04F0D461446984606469DB018B12B
:101F740083690BB9FFF724FE894B9D421BD1756819
:101F84006B6ED90705D4AB899A0502D4A86DFFF707
:101F9400B5FEAB891B0701D52B69EBB92946304641
:101FA400FFF78AFCC0B16B6EDC070ED54FF0FF3033
:101FB4001DB0BDE8F08F7B4B9D4201D1B568DFE7D2
:101FC400794B9D4208BFF568DAE7AB899805EDD4F3
:101FD400A86DFFF794FEE9E70023099320238DF809
:101FE400293030234FF00109CDF80C80DFF8BC8193
:101FF4008DF82A3023469A4613F8012B0AB1252A74
:10200400F9D1BAEB040B0BD05B4622462946304685
:10201400FFF793FF013000F0AA80099A5A4409920D
:102024009AF80030002B00F0A28000234FF0FF321A
:10203400CDE905230AF1010A049307938DF853307F
:102044001A935446052214F8011B584800F0F8FA74
:10205400049AD8B9D10644BF20238DF8533013070E
:1020640044BF2B238DF853309AF800302A2B15D017
:10207400544600204FF00A0C079A214611F8013B00
:10208400303B092B4ED9B0B1079214E0A0EB080302
:1020940009FA03F31343A2460493D2E7039B191DE1
:1020A4001B680391002BBBBF5B4242F00202079303
:1020B4000793B8BF049223782E2B0CD163782A2B74
:1020C40035D1039B02341A1D1B680392002BB8BF41
:1020D4004FF0FF330593DFF8D8A003225046217850
:1020E40000F0AEFA40B14023A0EB0A0003FA00F07E
:1020F400049B01340343049314F8011B06222D4866
:102104008DF8281000F09CFA00283FD02A4B1BBB06
:10211400039B073323F0070308330393099B3B44D2
:10212400099367E70C4601200CFB0232A5E7002364
:102134004FF00A0C194601340593204610F8012B80
:10214400303A092A03D9002BC5D00591C3E70446C8
:1021540001230CFB0121F0E703AB00932A46304630
:10216400164B04A9AFF300800746781CD6D16B6EDA
:10217400D90705D4AB899A0502D4A86DFFF7BFFD32
:10218400AB895B063FF512AF099811E703AB0093E7
:102194002A463046094B04A900F082F8E4E700BF60
:1021A4009C270008BC2700087C270008DC270008BF
:1021B400E2270008E6270008000000003F1F00088F
:1021C4002DE9F047164699468A680B6907469342FB
:1021D400B8BF1346336091F843200C46DDF82080E5
:1021E4000AB1013333602368990642BF336802336E
:1021F4003360256815F0060506D104F1190AE36871
:1022040032689B1AAB4228DC94F84320131E2268E0
:1022140018BF012392062DD44946384604F14302DF
:10222400C047013020D02368E56803F00603042B7F
:1022340018BF002532684FF00006A36808BFAD1A26
:10224400226908BF25EAE5759342C4BF9B1AED18BD
:102254001A34B5421AD1002008E0012352464946F7
:102264003846C047013003D14FF0FF30BDE8F08756
:102274000135C4E73020E11881F843005A1C94F872
:1022840045102244023382F84310C5E70123224655
:1022940049463846C0470130E6D00136D9E7000048
:1022A4002DE9FF470F7E9146782F80460C469A46CB
:1022B4000C9D01F1430207D8622F0AD8002F00F0C9
:1022C400D980582F00F0A48004F1420584F84270AC
:1022D4003AE0A7F16303152BF6D801A151F823F0D6
:1022E4003D23000851230008CD220008CD22000818
:1022F400CD220008CD22000851230008CD22000879
:10230400CD220008CD220008CD2200085F24000859
:102314008123000841240008CD220008CD220008B2
:1023240081240008CD22000881230008CD22000862
:10233400CD220008492400082B681A1D1B682A6056
:1023440004F1420584F842300123A4E0206829689E
:10235400060601F104030AD50E682B60002E03DA89
:102364002D23764284F843300A235E4819E00E6830
:1023740010F0400F2B6018BF36B2EFE72B682068CF
:10238400191D2960010601D51E6802E04606FBD529
:102394001E886F2F0CBF08230A235248002184F89B
:1023A40043106568002DA8BF2168A560A4BF21F073
:1023B400040121600EB9002D4DD01546B6FBF3F192
:1023C40003FB1167C75D05F8017D3746BB420E4626
:1023D400F4D9082B0BD12368DE0708D5236961687B
:1023E4009942DEBF302305F8013C05F1FF35521B4D
:1023F40022614B4621464046CDF800A003AAFFF7D0
:10240400DFFE01304CD14FF0FF3004B0BDE8F0875F
:10241400344881F845702968236851F8046B2960B1
:102424001D0614D5DF0744BF43F0200323601EB903
:10243400236823F0200323601023AFE7236843F0CD
:10244400200323607823284884F84530E3E75906BD
:1024540048BFB6B2E6E71546BBE72B682668181DE9
:102464006169286035061B6801D5196002E07006B1
:10247400FBD51980002315462361BAE72B68002198
:102484001A1D2A601D686268284600F0D9F808B150
:10249400401B606063682361002384F84330A8E72D
:1024A4002A46494640462369D0470130ABD02368C9
:1024B4009B0713D4E068039B9842B8BF1846A4E76F
:1024C4000123324649464046D04701309BD001356E
:1024D400E36803995B1AAB42F2DCEBE7002504F1F5
:1024E4001906F5E7ED270008FE27000838B5002394
:1024F400054D044608462B6000F0F6F8431C02D153
:102504002B6803B1236038BDB000002010B50C4621
:10251400B1F90E1000F0AEF80028ABBF636DA389CB
:102524001B1823F48053ACBF6365A38110BD2DE950
:10253400F0411F468B890546DB050C46164605D53A
:1025440002230022B1F90E1000F068F8A389324684
:1025540023F48053A38128463B46B4F90E10BDE80A
:10256400F04100F017B810B50C46B1F90E1000F0A8
:1025740055F8431CA38915BF606523F4805343F4C5
:102584008053A38118BFA38110BDB1F90E1000F0D0
:1025940013B8000038B50446084611460022054D1C
:1025A4002A601A46FEF792FC431C02D12B6803B141
:1025B400236038BDB000002038B50023054D044623
:1025C40008462B6000F068F8431C02D12B6803B165
:1025D400236038BDB000002038B50023064D044602
:1025E400084611462B6000F05FF8431C02D12B68AB
:1025F40003B1236038BD00BFB000002038B500230C
:10260400054D044608462B6000F056F8431C02D1E1
:102614002B6803B1236038BDB000002038B50446F0
:10262400084611460022054D2A601A4600F04CF86F
:10263400431C02D12B6803B1236038BDB0000020D5
:10264400034610B5C9B202449342184601D1002092
:1026540003E0047801338C42F6D110BD0148FFF742
:102664004DBB00BFA30000200148FFF748BB00BFDB
:10267400A300002038B50446084611460022054D43
:102684002A601A4600F028F8431C02D12B6803B1D3
:10269400236038BDB00000205822024B4FF0FF30B9
:1026A4001A607047B00000205822024B4FF0FF30F0
:1026B4001A607047B00000205822024B00201A60B4
:1026C400704700BFB00000205822024B4FF0FF308B
:1026D4001A607047B00000205822024B4FF0FF30C0
:1026E4001A607047B0000020044A05491368002BA3
:1026F40008BF0B461844106018467047B400002009
:10270400B8000020F8B500BFF8BC08BC9E4670476E
:0C271400F8B500BFF8BC08BC9E4670473A
:1027200070757368206B65792030210D0000000002
:1027300070757368206B65792031210D00000000F1
:102740000D0A4A756D70696E6720746F2049535089
:102750002E2E2E006572726F7220696E7075742055
:102760006C65645F6E0D00006672616D653A25648C
:102770006670730D0A0000001C00002000000000BD
:102780000000000000000000000000000000000049
:102790000000000000000000000000000000000039
:1027A0000000000000000000000000000000000029
:1027B0000000000000000000000000000000000019
:1027C0000000000000000000000000000000000009
:1027D000000000000000000000000000232D302B4E
:1027E0002000686C4C006566674546470030313212
:1027F0003334353637383941424344454600303169
:1028000032333435363738396162636465660000C7
:0428100009020008B1
:04281400E5010008D2
:1028180000A24A04000000000102030401020304AC
:1028280006070809020406081C0000200000000032
:102838009C270008BC2700087C270008000000002F
:102848000000000000000000000000000000000080
:102858000000000000000000000000000000000070
:102868000000000000000000000000000000000060
:102878000000000000000000000000000000000050
:0C28880000000000000000000000000044
:040000050800165980
:00000001FF
